{
  "address": "0x70F5b7e7748Bb65E53e024D1f76F75d61d99a40e",
  "abi": [
    {
      "inputs": [],
      "stateMutability": "nonpayable",
      "type": "constructor"
    },
    {
      "anonymous": false,
      "inputs": [
        {
          "indexed": true,
          "internalType": "address",
          "name": "previousOwner",
          "type": "address"
        },
        {
          "indexed": true,
          "internalType": "address",
          "name": "newOwner",
          "type": "address"
        }
      ],
      "name": "OwnershipTransferred",
      "type": "event"
    },
    {
      "inputs": [
        {
          "internalType": "address",
          "name": "factoryAddress",
          "type": "address"
        }
      ],
      "name": "allPairsLengthUniswapV2",
      "outputs": [
        {
          "internalType": "uint256",
          "name": "allPairsLength",
          "type": "uint256"
        }
      ],
      "stateMutability": "view",
      "type": "function"
    },
    {
      "inputs": [
        {
          "internalType": "address",
          "name": "lp",
          "type": "address"
        },
        {
          "internalType": "address",
          "name": "tokenIn",
          "type": "address"
        },
        {
          "internalType": "uint256",
          "name": "amountIn",
          "type": "uint256"
        }
      ],
      "name": "exchange",
      "outputs": [],
      "stateMutability": "nonpayable",
      "type": "function"
    },
    {
      "inputs": [],
      "name": "getOwner",
      "outputs": [
        {
          "internalType": "address",
          "name": "",
          "type": "address"
        }
      ],
      "stateMutability": "view",
      "type": "function"
    },
    {
      "inputs": [
        {
          "internalType": "address[]",
          "name": "tokens",
          "type": "address[]"
        },
        {
          "internalType": "address",
          "name": "holder",
          "type": "address"
        }
      ],
      "name": "getTokenBalances",
      "outputs": [
        {
          "internalType": "uint256[]",
          "name": "balances",
          "type": "uint256[]"
        }
      ],
      "stateMutability": "view",
      "type": "function"
    },
    {
      "inputs": [
        {
          "internalType": "address",
          "name": "newOwner",
          "type": "address"
        }
      ],
      "name": "initOwner",
      "outputs": [],
      "stateMutability": "nonpayable",
      "type": "function"
    },
    {
      "inputs": [],
      "name": "initialize",
      "outputs": [],
      "stateMutability": "nonpayable",
      "type": "function"
    },
    {
      "inputs": [
        {
          "internalType": "address[]",
          "name": "pairs",
          "type": "address[]"
        }
      ],
      "name": "loadPairReserves",
      "outputs": [
        {
          "components": [
            {
              "internalType": "uint256",
              "name": "reserve0",
              "type": "uint256"
            },
            {
              "internalType": "uint256",
              "name": "reserve1",
              "type": "uint256"
            }
          ],
          "internalType": "struct Equalizer.ReservesData[]",
          "name": "reserves",
          "type": "tuple[]"
        }
      ],
      "stateMutability": "view",
      "type": "function"
    },
    {
      "inputs": [
        {
          "internalType": "address",
          "name": "factoryAddress",
          "type": "address"
        },
        {
          "internalType": "uint256",
          "name": "skip",
          "type": "uint256"
        },
        {
          "internalType": "uint256",
          "name": "count",
          "type": "uint256"
        }
      ],
      "name": "loadPairsUniswapV2",
      "outputs": [
        {
          "components": [
            {
              "internalType": "address",
              "name": "lp",
              "type": "address"
            },
            {
              "internalType": "address",
              "name": "token0",
              "type": "address"
            },
            {
              "internalType": "address",
              "name": "token1",
              "type": "address"
            }
          ],
          "internalType": "struct Equalizer.LpData[]",
          "name": "pairs",
          "type": "tuple[]"
        }
      ],
      "stateMutability": "view",
      "type": "function"
    },
    {
      "inputs": [
        {
          "internalType": "address[]",
          "name": "tokens",
          "type": "address[]"
        }
      ],
      "name": "loadTokenNames",
      "outputs": [
        {
          "internalType": "string[]",
          "name": "names",
          "type": "string[]"
        }
      ],
      "stateMutability": "view",
      "type": "function"
    },
    {
      "inputs": [],
      "name": "networkToken",
      "outputs": [
        {
          "internalType": "address",
          "name": "",
          "type": "address"
        }
      ],
      "stateMutability": "view",
      "type": "function"
    },
    {
      "inputs": [
        {
          "internalType": "address",
          "name": "factoryAddress",
          "type": "address"
        },
        {
          "internalType": "uint256",
          "name": "skip",
          "type": "uint256"
        },
        {
          "internalType": "uint256",
          "name": "count",
          "type": "uint256"
        }
      ],
      "name": "scanSkimsUniswapV2",
      "outputs": [
        {
          "components": [
            {
              "internalType": "address",
              "name": "lp",
              "type": "address"
            },
            {
              "internalType": "address",
              "name": "token0",
              "type": "address"
            },
            {
              "internalType": "address",
              "name": "token1",
              "type": "address"
            },
            {
              "internalType": "uint256",
              "name": "cream0",
              "type": "uint256"
            },
            {
              "internalType": "uint256",
              "name": "cream1",
              "type": "uint256"
            }
          ],
          "internalType": "struct Equalizer.SkimData[]",
          "name": "foundPairs",
          "type": "tuple[]"
        }
      ],
      "stateMutability": "view",
      "type": "function"
    },
    {
      "inputs": [
        {
          "internalType": "address",
          "name": "_networkToken",
          "type": "address"
        }
      ],
      "name": "setNetworkToken",
      "outputs": [],
      "stateMutability": "nonpayable",
      "type": "function"
    },
    {
      "inputs": [
        {
          "internalType": "address",
          "name": "newOwner",
          "type": "address"
        }
      ],
      "name": "transferContractOwnership",
      "outputs": [],
      "stateMutability": "nonpayable",
      "type": "function"
    },
    {
      "inputs": [
        {
          "internalType": "address",
          "name": "token",
          "type": "address"
        },
        {
          "internalType": "uint256",
          "name": "amount",
          "type": "uint256"
        }
      ],
      "name": "withdraw",
      "outputs": [],
      "stateMutability": "nonpayable",
      "type": "function"
    }
  ],
  "transactionHash": "0x4cd4a675f58aad03234455ccec55019209db464c53b3ee091b052ac6e9f6a80f",
  "args": [],
  "numDeployments": 2,
  "solcInputHash": "86ebc227ce461ee5d326d7f0e3736cc8",
  "bytecode": "0x60806040523480156200001157600080fd5b506200001d336200002d565b620000276200006c565b620001e6565b600080546001600160a01b038381166001600160a01b0319831681178455604051919092169283916000805160206200205f8339815191529190a35050565b600054600160a81b900460ff166200009257600054600160a01b900460ff16156200009c565b6200009c6200016a565b620001045760405162461bcd60e51b815260206004820152602e60248201527f496e697469616c697a61626c653a20636f6e747261637420697320616c72656160448201526d191e481a5b9a5d1a585b1a5e995960921b606482015260840160405180910390fd5b600054600160a81b900460ff161580156200012f576000805461ffff60a01b191661010160a01b1790555b6000546001600160a01b031615620001475762000152565b620001523362000188565b801562000167576000805460ff60a81b191690555b50565b60006200018230620001d760201b620017ab1760201c565b15905090565b6000546001600160a01b0316156200019d5750565b600080546001600160a01b0319166001600160a01b03831690811782556040519091906000805160206200205f833981519152908290a350565b6001600160a01b03163b151590565b611e6980620001f66000396000f3fe608060405234801561001057600080fd5b50600436106100ea5760003560e01c8063969e37561161008c578063c3fae36211610066578063c3fae362146101ea578063d3b228511461020a578063f3fef3a31461022b578063f8723ba01461023e57600080fd5b8063969e3756146101a4578063a843c51f146101b7578063ba2a1ef2146101ca57600080fd5b80636ca95a4e116100c85780636ca95a4e146101405780638129fc1c1461016b578063893d20e8146101735780638ec530de1461018457600080fd5b806305dbb35e146100ef5780630d0092971461011857806317107c491461012d575b600080fd5b6101026100fd36600461196b565b61025e565b60405161010f9190611c63565b60405180910390f35b61012b6101263660046118c8565b61094e565b005b61012b61013b3660046118c8565b6109ad565b600154610153906001600160a01b031681565b6040516001600160a01b03909116815260200161010f565b61012b610a6c565b6000546001600160a01b0316610153565b61019761019236600461199f565b610b57565b60405161010f9190611b40565b61012b6101b2366004611900565b610d15565b61012b6101c53660046118c8565b610d91565b6101dd6101d836600461196b565b610e3d565b60405161010f9190611bb9565b6101fd6101f83660046119da565b6111b6565b60405161010f9190611cd2565b61021d6102183660046118c8565b611367565b60405190815260200161010f565b61012b610239366004611940565b6113e5565b61025161024c36600461199f565b6115ab565b60405161010f9190611c21565b606060008490506000816001600160a01b031663574f2ba36040518163ffffffff1660e01b815260040160206040518083038186803b1580156102a057600080fd5b505afa1580156102b4573d6000803e3d6000fd5b505050506040513d601f19601f820116820180604052508101906102d89190611b28565b905060006102ef826102ea8789611d7c565b6117ba565b905060006102fd8783611d94565b67ffffffffffffffff81111561032357634e487b7160e01b600052604160045260246000fd5b60405190808252806020026020018201604052801561037c57816020015b6040805160a0810182526000808252602080830182905292820181905260608201819052608082015282526000199092019101816103415790505b5090506000875b8381101561084c57604051631e3dd18b60e01b8152600481018290526000906001600160a01b03881690631e3dd18b9060240160206040518083038186803b1580156103ce57600080fd5b505afa1580156103e2573d6000803e3d6000fd5b505050506040513d601f19601f8201168201806040525081019061040691906118e4565b9050600080826001600160a01b0316630dfe16816040518163ffffffff1660e01b815260040160206040518083038186803b15801561044457600080fd5b505afa925050508015610474575060408051601f3d908101601f19168201909252610471918101906118e4565b60015b6104b1573d8080156104a2576040519150601f19603f3d011682016040523d82523d6000602084013e6104a7565b606091505b505050505061083a565b9150826001600160a01b031663d21220a76040518163ffffffff1660e01b815260040160206040518083038186803b1580156104ec57600080fd5b505afa92505050801561051c575060408051601f3d908101601f19168201909252610519918101906118e4565b60015b61054a573d8080156104a2576040519150601f19603f3d011682016040523d82523d6000602084013e6104a7565b9050600080846001600160a01b0316630902f1ac6040518163ffffffff1660e01b815260040160606040518083038186803b15801561058857600080fd5b505afa9250505080156105b8575060408051601f3d908101601f191682019092526105b591810190611ada565b60015b6105f7573d8080156105e6576040519150601f19603f3d011682016040523d82523d6000602084013e6105eb565b606091505b5050505050505061083a565b506040516370a0823160e01b81523060048201526001600160701b0392831694509116915060009081906001600160a01b038616906370a082319060240160206040518083038186803b15801561064d57600080fd5b505afa92505050801561067d575060408051601f3d908101601f1916820190925261067a91810190611b28565b60015b6106be573d8080156106ab576040519150601f19603f3d011682016040523d82523d6000602084013e6106b0565b606091505b50505050505050505061083a565b6040516370a0823160e01b81523060048201529092506001600160a01b038616906370a082319060240160206040518083038186803b15801561070057600080fd5b505afa925050508015610730575060408051601f3d908101601f1916820190925261072d91810190611b28565b60015b61075e573d8080156106ab576040519150601f19603f3d011682016040523d82523d6000602084013e6106b0565b9050600084831161077057600061077a565b61077a8584611d94565b9050600084831161078c576000610796565b6107968584611d94565b9050811580156107a4575080155b156107b75750505050505050505061083a565b6040518060a001604052808a6001600160a01b03168152602001896001600160a01b03168152602001886001600160a01b03168152602001838152602001828152508c8c8061080590611dd7565b9d508151811061082557634e487b7160e01b600052603260045260246000fd5b60200260200101819052505050505050505050505b8061084481611dd7565b915050610383565b508067ffffffffffffffff81111561087457634e487b7160e01b600052604160045260246000fd5b6040519080825280602002602001820160405280156108cd57816020015b6040805160a0810182526000808252602080830182905292820181905260608201819052608082015282526000199092019101816108925790505b50955060005b81811015610941578281815181106108fb57634e487b7160e01b600052603260045260246000fd5b602002602001015187828151811061092357634e487b7160e01b600052603260045260246000fd5b6020026020010181905250808061093990611dd7565b9150506108d3565b5050505050509392505050565b6000546001600160a01b0316156109625750565b600080546001600160a01b0319166001600160a01b03831690811782556040519091907f8be0079c531659141344cd1fd0a4f28419497f9722a3daafe3b4186f6b6457e0908290a350565b6000546001600160a01b03163314806109cf57506000546001600160a01b0316155b6109f45760405162461bcd60e51b81526004016109eb90611d16565b60405180910390fd5b6001600160a01b038116610a4a5760405162461bcd60e51b815260206004820152601e60248201527f45513a204e6574776f726b20746f6b656e2063616e206e6f742062652030000060448201526064016109eb565b600180546001600160a01b0319166001600160a01b0392909216919091179055565b600054600160a81b900460ff16610a9057600054600160a01b900460ff1615610a94565b303b155b610af75760405162461bcd60e51b815260206004820152602e60248201527f496e697469616c697a61626c653a20636f6e747261637420697320616c72656160448201526d191e481a5b9a5d1a585b1a5e995960921b60648201526084016109eb565b600054600160a81b900460ff16158015610b21576000805461ffff60a01b191661010160a01b1790555b6000546001600160a01b031615610b3757610b40565b610b403361094e565b8015610b54576000805460ff60a81b191690555b50565b80516060908067ffffffffffffffff811115610b8357634e487b7160e01b600052604160045260246000fd5b604051908082528060200260200182016040528015610bb657816020015b6060815260200190600190039081610ba15790505b50915060005b81811015610d0e57838181518110610be457634e487b7160e01b600052603260045260246000fd5b60200260200101516001600160a01b03166395d89b416040518163ffffffff1660e01b815260040160006040518083038186803b158015610c2457600080fd5b505afa925050508015610c5957506040513d6000823e601f3d908101601f19168201604052610c569190810190611a4a565b60015b610cce573d808015610c87576040519150601f19603f3d011682016040523d82523d6000602084013e610c8c565b606091505b5060405180602001604052806000815250848381518110610cbd57634e487b7160e01b600052603260045260246000fd5b602002602001018190525050610cfc565b80848381518110610cef57634e487b7160e01b600052603260045260246000fd5b6020026020010181905250505b80610d0681611dd7565b915050610bbc565b5050919050565b6000546001600160a01b0316331480610d3757506000546001600160a01b0316155b610d535760405162461bcd60e51b81526004016109eb90611d16565b60405162461bcd60e51b815260206004820152601360248201527211544e88139bdd081a5b5c1b195b595b9d1959606a1b60448201526064016109eb565b6000546001600160a01b0316331480610db357506000546001600160a01b0316155b610dcf5760405162461bcd60e51b81526004016109eb90611d16565b6001600160a01b038116610e345760405162461bcd60e51b815260206004820152602660248201527f4f776e61626c653a206e6577206f776e657220697320746865207a65726f206160448201526564647265737360d01b60648201526084016109eb565b610b54816117d0565b606060008490506000816001600160a01b031663574f2ba36040518163ffffffff1660e01b815260040160206040518083038186803b158015610e7f57600080fd5b505afa158015610e93573d6000803e3d6000fd5b505050506040513d601f19601f82011682018060405250810190610eb79190611b28565b90506000610ec9826102ea8789611d7c565b9050610ed58682611d94565b67ffffffffffffffff811115610efb57634e487b7160e01b600052604160045260246000fd5b604051908082528060200260200182016040528015610f4657816020015b6040805160608101825260008082526020808301829052928201528252600019909201910181610f195790505b5093506000865b828110156111aa57604051631e3dd18b60e01b8152600481018290526000906001600160a01b03871690631e3dd18b9060240160206040518083038186803b158015610f9857600080fd5b505afa158015610fac573d6000803e3d6000fd5b505050506040513d601f19601f82011682018060405250810190610fd091906118e4565b90506000819050600080826001600160a01b0316630dfe16816040518163ffffffff1660e01b815260040160206040518083038186803b15801561101357600080fd5b505afa925050508015611043575060408051601f3d908101601f19168201909252611040918101906118e4565b60015b61107d573d808015611071576040519150601f19603f3d011682016040523d82523d6000602084013e611076565b606091505b5050611080565b91505b826001600160a01b031663d21220a76040518163ffffffff1660e01b815260040160206040518083038186803b1580156110b957600080fd5b505afa9250505080156110e9575060408051601f3d908101601f191682019092526110e6918101906118e4565b60015b611123573d808015611117576040519150601f19603f3d011682016040523d82523d6000602084013e61111c565b606091505b5050611126565b90505b6040518060600160405280856001600160a01b03168152602001836001600160a01b03168152602001826001600160a01b03168152508a878061116890611dd7565b98508151811061118857634e487b7160e01b600052603260045260246000fd5b60200260200101819052505050505080806111a290611dd7565b915050610f4d565b50505050509392505050565b81516060908067ffffffffffffffff8111156111e257634e487b7160e01b600052604160045260246000fd5b60405190808252806020026020018201604052801561120b578160200160208202803683370190505b50915060005b8181101561135f5784818151811061123957634e487b7160e01b600052603260045260246000fd5b60209081029190910101516040516370a0823160e01b81526001600160a01b038681166004830152909116906370a082319060240160206040518083038186803b15801561128657600080fd5b505afa9250505080156112b6575060408051601f3d908101601f191682019092526112b391810190611b28565b60015b61131e573d8080156112e4576040519150601f19603f3d011682016040523d82523d6000602084013e6112e9565b606091505b50600084838151811061130c57634e487b7160e01b600052603260045260246000fd5b6020026020010181815250505061134d565b8084838151811061133f57634e487b7160e01b600052603260045260246000fd5b602002602001018181525050505b8061135781611dd7565b915050611211565b505092915050565b600080829050806001600160a01b031663574f2ba36040518163ffffffff1660e01b815260040160206040518083038186803b1580156113a657600080fd5b505afa1580156113ba573d6000803e3d6000fd5b505050506040513d601f19601f820116820180604052508101906113de9190611b28565b9392505050565b6000546001600160a01b031633148061140757506000546001600160a01b0316155b6114235760405162461bcd60e51b81526004016109eb90611d16565b6040516370a0823160e01b81523060048201526000906001600160a01b038416906370a082319060240160206040518083038186803b15801561146557600080fd5b505afa158015611479573d6000803e3d6000fd5b505050506040513d601f19601f8201168201806040525081019061149d9190611b28565b9050816114a8578091505b81811061155757826001600160a01b031663a9059cbb6114d06000546001600160a01b031690565b6040516001600160e01b031960e084901b1681526001600160a01b039091166004820152602481018590526044015b602060405180830381600087803b15801561151957600080fd5b505af115801561152d573d6000803e3d6000fd5b505050506040513d601f19601f820116820180604052508101906115519190611a2a565b50505050565b826001600160a01b031663a9059cbb6115786000546001600160a01b031690565b6040516001600160e01b031960e084901b1681526001600160a01b039091166004820152602481018490526044016114ff565b80516060908067ffffffffffffffff8111156115d757634e487b7160e01b600052604160045260246000fd5b60405190808252806020026020018201604052801561161c57816020015b60408051808201909152600080825260208201528152602001906001900390816115f55790505b50915060005b81811015610d0e57600084828151811061164c57634e487b7160e01b600052603260045260246000fd5b602002602001015190506000819050806001600160a01b0316630902f1ac6040518163ffffffff1660e01b815260040160606040518083038186803b15801561169457600080fd5b505afa9250505080156116c4575060408051601f3d908101601f191682019092526116c191810190611ada565b60015b611740573d8080156116f2576040519150601f19603f3d011682016040523d82523d6000602084013e6116f7565b606091505b50604051806040016040528060008152602001600081525086858151811061172f57634e487b7160e01b600052603260045260246000fd5b602002602001018190525050611796565b6040518060400160405280846001600160701b03168152602001836001600160701b031681525088878151811061178757634e487b7160e01b600052603260045260246000fd5b60200260200101819052505050505b505080806117a390611dd7565b915050611622565b6001600160a01b03163b151590565b60008183106117c957816113de565b5090919050565b600080546001600160a01b038381166001600160a01b0319831681178455604051919092169283917f8be0079c531659141344cd1fd0a4f28419497f9722a3daafe3b4186f6b6457e09190a35050565b600082601f830112611830578081fd5b8135602067ffffffffffffffff82111561184c5761184c611e08565b8160051b61185b828201611d4b565b838152828101908684018388018501891015611875578687fd5b8693505b858410156118a057803561188c81611e1e565b835260019390930192918401918401611879565b50979650505050505050565b80516001600160701b03811681146118c357600080fd5b919050565b6000602082840312156118d9578081fd5b81356113de81611e1e565b6000602082840312156118f5578081fd5b81516113de81611e1e565b600080600060608486031215611914578182fd5b833561191f81611e1e565b9250602084013561192f81611e1e565b929592945050506040919091013590565b60008060408385031215611952578182fd5b823561195d81611e1e565b946020939093013593505050565b60008060006060848603121561197f578283fd5b833561198a81611e1e565b95602085013595506040909401359392505050565b6000602082840312156119b0578081fd5b813567ffffffffffffffff8111156119c6578182fd5b6119d284828501611820565b949350505050565b600080604083850312156119ec578182fd5b823567ffffffffffffffff811115611a02578283fd5b611a0e85828601611820565b9250506020830135611a1f81611e1e565b809150509250929050565b600060208284031215611a3b578081fd5b815180151581146113de578182fd5b600060208284031215611a5b578081fd5b815167ffffffffffffffff80821115611a72578283fd5b818401915084601f830112611a85578283fd5b815181811115611a9757611a97611e08565b611aaa601f8201601f1916602001611d4b565b9150808252856020828501011115611ac0578384fd5b611ad1816020840160208601611dab565b50949350505050565b600080600060608486031215611aee578283fd5b611af7846118ac565b9250611b05602085016118ac565b9150604084015163ffffffff81168114611b1d578182fd5b809150509250925092565b600060208284031215611b39578081fd5b5051919050565b6000602080830181845280855180835260408601915060408160051b8701019250838701855b82811015611bac57878503603f1901845281518051808752611b8d818989018a8501611dab565b601f01601f191695909501860194509285019290850190600101611b66565b5092979650505050505050565b602080825282518282018190526000919060409081850190868401855b82811015611c1457815180516001600160a01b0390811686528782015181168887015290860151168585015260609093019290850190600101611bd6565b5091979650505050505050565b602080825282518282018190526000919060409081850190868401855b82811015611c1457815180518552860151868501529284019290850190600101611c3e565b602080825282518282018190526000919060409081850190868401855b82811015611c1457815180516001600160a01b03908116865287820151811688870152868201511686860152606080820151908601526080908101519085015260a09093019290850190600101611c80565b6020808252825182820181905260009190848201906040850190845b81811015611d0a57835183529284019291840191600101611cee565b50909695505050505050565b6020808252818101527f4f776e61626c653a2063616c6c6572206973206e6f7420746865206f776e6572604082015260600190565b604051601f8201601f1916810167ffffffffffffffff81118282101715611d7457611d74611e08565b604052919050565b60008219821115611d8f57611d8f611df2565b500190565b600082821015611da657611da6611df2565b500390565b60005b83811015611dc6578181015183820152602001611dae565b838111156115515750506000910152565b6000600019821415611deb57611deb611df2565b5060010190565b634e487b7160e01b600052601160045260246000fd5b634e487b7160e01b600052604160045260246000fd5b6001600160a01b0381168114610b5457600080fdfea26469706673582212204d3bea39acb33b0b96d26df41489740f1b57e67d15c94320e500b9b3e6a0603564736f6c634300080400338be0079c531659141344cd1fd0a4f28419497f9722a3daafe3b4186f6b6457e0",
  "devdoc": {
    "kind": "dev",
    "methods": {
      "getOwner()": {
        "details": "Returns the address of the current owner."
      },
      "initOwner(address)": {
        "details": "for proxy / initializer"
      },
      "transferContractOwnership(address)": {
        "details": "Transfers ownership of the contract to a new account (`newOwner`). Can only be called by the current owner."
      }
    },
    "version": 1
  },
  "userdoc": {
    "kind": "user",
    "methods": {},
    "version": 1
  },
  "storageLayout": {
    "storage": [
      {
        "astId": 2066,
        "contract": "contracts/Equalizer.sol:Equalizer",
        "label": "_contractOwner",
        "offset": 0,
        "slot": "0",
        "type": "t_address"
      },
      {
        "astId": 6,
        "contract": "contracts/Equalizer.sol:Equalizer",
        "label": "_initialized",
        "offset": 20,
        "slot": "0",
        "type": "t_bool"
      },
      {
        "astId": 9,
        "contract": "contracts/Equalizer.sol:Equalizer",
        "label": "_initializing",
        "offset": 21,
        "slot": "0",
        "type": "t_bool"
      },
      {
        "astId": 514,
        "contract": "contracts/Equalizer.sol:Equalizer",
        "label": "networkToken",
        "offset": 0,
        "slot": "1",
        "type": "t_address"
      }
    ],
    "types": {
      "t_address": {
        "encoding": "inplace",
        "label": "address",
        "numberOfBytes": "20"
      },
      "t_bool": {
        "encoding": "inplace",
        "label": "bool",
        "numberOfBytes": "1"
      }
    }
  }
}