{
  "address": "0x26359EE24bE2A54E799e4D90a477fa8536E92FED",
  "abi": [
    {
      "inputs": [],
      "stateMutability": "nonpayable",
      "type": "constructor"
    },
    {
      "anonymous": false,
      "inputs": [
        {
          "indexed": true,
          "internalType": "address",
          "name": "previousOwner",
          "type": "address"
        },
        {
          "indexed": true,
          "internalType": "address",
          "name": "newOwner",
          "type": "address"
        }
      ],
      "name": "OwnershipTransferred",
      "type": "event"
    },
    {
      "inputs": [
        {
          "internalType": "address",
          "name": "factoryAddress",
          "type": "address"
        }
      ],
      "name": "allPairsLengthUniswapV2",
      "outputs": [
        {
          "internalType": "uint256",
          "name": "allPairsLength",
          "type": "uint256"
        }
      ],
      "stateMutability": "view",
      "type": "function"
    },
    {
      "inputs": [],
      "name": "getOwner",
      "outputs": [
        {
          "internalType": "address",
          "name": "",
          "type": "address"
        }
      ],
      "stateMutability": "view",
      "type": "function"
    },
    {
      "inputs": [
        {
          "internalType": "address[]",
          "name": "tokens",
          "type": "address[]"
        },
        {
          "internalType": "address",
          "name": "holder",
          "type": "address"
        }
      ],
      "name": "getTokenBalances",
      "outputs": [
        {
          "internalType": "uint256[]",
          "name": "balances",
          "type": "uint256[]"
        }
      ],
      "stateMutability": "view",
      "type": "function"
    },
    {
      "inputs": [
        {
          "internalType": "address",
          "name": "newOwner",
          "type": "address"
        }
      ],
      "name": "initOwner",
      "outputs": [],
      "stateMutability": "nonpayable",
      "type": "function"
    },
    {
      "inputs": [],
      "name": "initialize",
      "outputs": [],
      "stateMutability": "nonpayable",
      "type": "function"
    },
    {
      "inputs": [
        {
          "internalType": "address[]",
          "name": "pairs",
          "type": "address[]"
        }
      ],
      "name": "loadPairReserves",
      "outputs": [
        {
          "components": [
            {
              "internalType": "uint256",
              "name": "reserve0",
              "type": "uint256"
            },
            {
              "internalType": "uint256",
              "name": "reserve1",
              "type": "uint256"
            }
          ],
          "internalType": "struct Equalizer.ReservesData[]",
          "name": "reserves",
          "type": "tuple[]"
        }
      ],
      "stateMutability": "view",
      "type": "function"
    },
    {
      "inputs": [
        {
          "internalType": "address",
          "name": "factoryAddress",
          "type": "address"
        },
        {
          "internalType": "uint256",
          "name": "skip",
          "type": "uint256"
        },
        {
          "internalType": "uint256",
          "name": "count",
          "type": "uint256"
        }
      ],
      "name": "loadPairsUniswapV2",
      "outputs": [
        {
          "components": [
            {
              "internalType": "address",
              "name": "lp",
              "type": "address"
            },
            {
              "internalType": "address",
              "name": "token0",
              "type": "address"
            },
            {
              "internalType": "address",
              "name": "token1",
              "type": "address"
            }
          ],
          "internalType": "struct Equalizer.LpData[]",
          "name": "pairs",
          "type": "tuple[]"
        }
      ],
      "stateMutability": "view",
      "type": "function"
    },
    {
      "inputs": [
        {
          "internalType": "address[]",
          "name": "tokens",
          "type": "address[]"
        }
      ],
      "name": "loadTokenNames",
      "outputs": [
        {
          "internalType": "string[]",
          "name": "names",
          "type": "string[]"
        }
      ],
      "stateMutability": "view",
      "type": "function"
    },
    {
      "inputs": [],
      "name": "networkToken",
      "outputs": [
        {
          "internalType": "address",
          "name": "",
          "type": "address"
        }
      ],
      "stateMutability": "view",
      "type": "function"
    },
    {
      "inputs": [
        {
          "internalType": "address",
          "name": "factoryAddress",
          "type": "address"
        },
        {
          "internalType": "uint256",
          "name": "skip",
          "type": "uint256"
        },
        {
          "internalType": "uint256",
          "name": "count",
          "type": "uint256"
        },
        {
          "internalType": "uint256",
          "name": "minimum",
          "type": "uint256"
        },
        {
          "internalType": "uint16[]",
          "name": "exceptions",
          "type": "uint16[]"
        }
      ],
      "name": "scanSkimsUniswapV2",
      "outputs": [
        {
          "internalType": "address[]",
          "name": "foundPairs",
          "type": "address[]"
        }
      ],
      "stateMutability": "view",
      "type": "function"
    },
    {
      "inputs": [
        {
          "internalType": "address",
          "name": "_networkToken",
          "type": "address"
        }
      ],
      "name": "setNetworkToken",
      "outputs": [],
      "stateMutability": "nonpayable",
      "type": "function"
    },
    {
      "inputs": [
        {
          "internalType": "address[]",
          "name": "pairs",
          "type": "address[]"
        }
      ],
      "name": "skimPairs",
      "outputs": [],
      "stateMutability": "nonpayable",
      "type": "function"
    },
    {
      "inputs": [
        {
          "internalType": "address",
          "name": "newOwner",
          "type": "address"
        }
      ],
      "name": "transferContractOwnership",
      "outputs": [],
      "stateMutability": "nonpayable",
      "type": "function"
    },
    {
      "inputs": [
        {
          "internalType": "address",
          "name": "token",
          "type": "address"
        },
        {
          "internalType": "uint256",
          "name": "amount",
          "type": "uint256"
        }
      ],
      "name": "withdraw",
      "outputs": [],
      "stateMutability": "nonpayable",
      "type": "function"
    }
  ],
  "transactionHash": "0x82870d31e2c381978f992e37024ce3f16a421749c4183e37f95a9005f43fe7e8",
  "args": [],
  "numDeployments": 2,
  "solcInputHash": "72f6c6d53a11b1efbd6c61d19cd46ea7",
  "bytecode": "0x60806040523480156200001157600080fd5b506200001d336200002d565b620000276200006c565b620000dc565b600080546001600160a01b038381166001600160a01b03198316811784556040519190921692839160008051602062001d868339815191529190a35050565b6000546001600160a01b0316156200008057565b6200008b336200008d565b565b6000546001600160a01b031615620000a25750565b600080546001600160a01b0319166001600160a01b038316908117825560405190919060008051602062001d86833981519152908290a350565b611c9a80620000ec6000396000f3fe608060405234801561001057600080fd5b50600436106100ea5760003560e01c8063a4b78d951161008c578063c3fae36211610066578063c3fae362146101ea578063d3b228511461020a578063f3fef3a31461022b578063f8723ba01461023e57600080fd5b8063a4b78d95146101a4578063a843c51f146101b7578063ba2a1ef2146101ca57600080fd5b80636ca95a4e116100c85780636ca95a4e146101405780638129fc1c1461016b578063893d20e8146101735780638ec530de1461018457600080fd5b80630d009297146100ef57806317107c4914610104578063617b193514610117575b600080fd5b6101026100fd36600461166f565b61025e565b005b61010261011236600461166f565b6102bd565b61012a610125366004611706565b61037c565b604051610137919061197b565b60405180910390f35b600154610153906001600160a01b031681565b6040516001600160a01b039091168152602001610137565b61010261095c565b6000546001600160a01b0316610153565b6101976101923660046117da565b61097a565b60405161013791906119c8565b6101026101b23660046117da565b610b38565b6101026101c536600461166f565b610bf1565b6101dd6101d83660046116d2565b610ca0565b6040516101379190611a41565b6101fd6101f8366004611815565b610fb7565b6040516101379190611aeb565b61021d61021836600461166f565b611168565b604051908152602001610137565b6101026102393660046116a7565b6111e6565b61025161024c3660046117da565b6113a6565b6040516101379190611aa9565b6000546001600160a01b0316156102725750565b600080546001600160a01b0319166001600160a01b03831690811782556040519091907f8be0079c531659141344cd1fd0a4f28419497f9722a3daafe3b4186f6b6457e0908290a350565b6000546001600160a01b03163314806102df57506000546001600160a01b0316155b6103045760405162461bcd60e51b81526004016102fb90611b23565b60405180910390fd5b6001600160a01b03811661035a5760405162461bcd60e51b815260206004820152601e60248201527f45513a204e6574776f726b20746f6b656e2063616e206e6f742062652030000060448201526064016102fb565b600180546001600160a01b0319166001600160a01b0392909216919091179055565b60606000610403876001600160a01b031663574f2ba36040518163ffffffff1660e01b815260040160206040518083038186803b1580156103bc57600080fd5b505afa1580156103d0573d6000803e3d6000fd5b505050506040513d601f19601f820116820180604052508101906103f49190611963565b6103fe8789611bad565b611575565b905060006104118783611bc5565b67ffffffffffffffff81111561043757634e487b7160e01b600052604160045260246000fd5b604051908082528060200260200182016040528015610460578160200160208202803683370190505b5090506000875b8381101561087e57855160005b818110156104c6578288828151811061049d57634e487b7160e01b600052603260045260246000fd5b602002602001015161ffff1614156104b4576104c6565b806104be81611c08565b915050610474565b818110156104d557505061086c565b604051631e3dd18b60e01b8152600481018490526000906001600160a01b038e1690631e3dd18b9060240160206040518083038186803b15801561051857600080fd5b505afa15801561052c573d6000803e3d6000fd5b505050506040513d601f19601f82011682018060405250810190610550919061168b565b9050600080826001600160a01b0316630902f1ac6040518163ffffffff1660e01b815260040160606040518083038186803b15801561058e57600080fd5b505afa1580156105a2573d6000803e3d6000fd5b505050506040513d601f19601f820116820180604052508101906105c69190611915565b506001600160701b031691506001600160701b031691506000836001600160a01b0316630dfe16816040518163ffffffff1660e01b815260040160206040518083038186803b15801561061857600080fd5b505afa15801561062c573d6000803e3d6000fd5b505050506040513d601f19601f82011682018060405250810190610650919061168b565b6040516370a0823160e01b81526001600160a01b03868116600483015291909116906370a082319060240160206040518083038186803b15801561069357600080fd5b505afa1580156106a7573d6000803e3d6000fd5b505050506040513d601f19601f820116820180604052508101906106cb9190611963565b90506000846001600160a01b031663d21220a76040518163ffffffff1660e01b815260040160206040518083038186803b15801561070857600080fd5b505afa15801561071c573d6000803e3d6000fd5b505050506040513d601f19601f82011682018060405250810190610740919061168b565b6040516370a0823160e01b81526001600160a01b03878116600483015291909116906370a082319060240160206040518083038186803b15801561078357600080fd5b505afa158015610797573d6000803e3d6000fd5b505050506040513d601f19601f820116820180604052508101906107bb9190611963565b905060008483116107cd5760006107d7565b6107d78584611bc5565b905060008483116107e95760006107f3565b6107f38584611bc5565b90508f8210801561080357508f81105b156108165750505050505050505061086c565b868c8c61082281611c08565b9d508151811061084257634e487b7160e01b600052603260045260246000fd5b60200260200101906001600160a01b031690816001600160a01b0316815250505050505050505050505b8061087681611c08565b915050610467565b508067ffffffffffffffff8111156108a657634e487b7160e01b600052604160045260246000fd5b6040519080825280602002602001820160405280156108cf578160200160208202803683370190505b50935060005b8181101561094f578281815181106108fd57634e487b7160e01b600052603260045260246000fd5b602002602001015185828151811061092557634e487b7160e01b600052603260045260246000fd5b6001600160a01b03909216602092830291909101909101528061094781611c08565b9150506108d5565b5050505095945050505050565b6000546001600160a01b03161561096f57565b6109783361025e565b565b80516060908067ffffffffffffffff8111156109a657634e487b7160e01b600052604160045260246000fd5b6040519080825280602002602001820160405280156109d957816020015b60608152602001906001900390816109c45790505b50915060005b81811015610b3157838181518110610a0757634e487b7160e01b600052603260045260246000fd5b60200260200101516001600160a01b03166395d89b416040518163ffffffff1660e01b815260040160006040518083038186803b158015610a4757600080fd5b505afa925050508015610a7c57506040513d6000823e601f3d908101601f19168201604052610a799190810190611885565b60015b610af1573d808015610aaa576040519150601f19603f3d011682016040523d82523d6000602084013e610aaf565b606091505b5060405180602001604052806000815250848381518110610ae057634e487b7160e01b600052603260045260246000fd5b602002602001018190525050610b1f565b80848381518110610b1257634e487b7160e01b600052603260045260246000fd5b6020026020010181905250505b80610b2981611c08565b9150506109df565b5050919050565b8051600080546001600160a01b0316905b82811015610beb57838181518110610b7157634e487b7160e01b600052603260045260246000fd5b602090810291909101015160405163bc25cf7760e01b81526001600160a01b0384811660048301529091169063bc25cf7790602401600060405180830381600087803b158015610bc057600080fd5b505af1158015610bd4573d6000803e3d6000fd5b505050508080610be390611c08565b915050610b49565b50505050565b6000546001600160a01b0316331480610c1357506000546001600160a01b0316155b610c2f5760405162461bcd60e51b81526004016102fb90611b23565b6001600160a01b038116610c945760405162461bcd60e51b815260206004820152602660248201527f4f776e61626c653a206e6577206f776e657220697320746865207a65726f206160448201526564647265737360d01b60648201526084016102fb565b610c9d8161158b565b50565b606060008490506000816001600160a01b031663574f2ba36040518163ffffffff1660e01b815260040160206040518083038186803b158015610ce257600080fd5b505afa158015610cf6573d6000803e3d6000fd5b505050506040513d601f19601f82011682018060405250810190610d1a9190611963565b90506000610d2c826103fe8789611bad565b9050610d388682611bc5565b67ffffffffffffffff811115610d5e57634e487b7160e01b600052604160045260246000fd5b604051908082528060200260200182016040528015610da957816020015b6040805160608101825260008082526020808301829052928201528252600019909201910181610d7c5790505b5093506000865b82811015610fab57604051631e3dd18b60e01b8152600481018290526000906001600160a01b03871690631e3dd18b9060240160206040518083038186803b158015610dfb57600080fd5b505afa158015610e0f573d6000803e3d6000fd5b505050506040513d601f19601f82011682018060405250810190610e33919061168b565b90506000819050600080826001600160a01b0316630dfe16816040518163ffffffff1660e01b815260040160206040518083038186803b158015610e7657600080fd5b505afa925050508015610ea6575060408051601f3d908101601f19168201909252610ea39181019061168b565b60015b610eaf57610eb2565b91505b826001600160a01b031663d21220a76040518163ffffffff1660e01b815260040160206040518083038186803b158015610eeb57600080fd5b505afa925050508015610f1b575060408051601f3d908101601f19168201909252610f189181019061168b565b60015b610f2457610f27565b90505b6040518060600160405280856001600160a01b03168152602001836001600160a01b03168152602001826001600160a01b03168152508a8780610f6990611c08565b985081518110610f8957634e487b7160e01b600052603260045260246000fd5b6020026020010181905250505050508080610fa390611c08565b915050610db0565b50505050509392505050565b81516060908067ffffffffffffffff811115610fe357634e487b7160e01b600052604160045260246000fd5b60405190808252806020026020018201604052801561100c578160200160208202803683370190505b50915060005b818110156111605784818151811061103a57634e487b7160e01b600052603260045260246000fd5b60209081029190910101516040516370a0823160e01b81526001600160a01b038681166004830152909116906370a082319060240160206040518083038186803b15801561108757600080fd5b505afa9250505080156110b7575060408051601f3d908101601f191682019092526110b491810190611963565b60015b61111f573d8080156110e5576040519150601f19603f3d011682016040523d82523d6000602084013e6110ea565b606091505b50600084838151811061110d57634e487b7160e01b600052603260045260246000fd5b6020026020010181815250505061114e565b8084838151811061114057634e487b7160e01b600052603260045260246000fd5b602002602001018181525050505b8061115881611c08565b915050611012565b505092915050565b600080829050806001600160a01b031663574f2ba36040518163ffffffff1660e01b815260040160206040518083038186803b1580156111a757600080fd5b505afa1580156111bb573d6000803e3d6000fd5b505050506040513d601f19601f820116820180604052508101906111df9190611963565b9392505050565b6000546001600160a01b031633148061120857506000546001600160a01b0316155b6112245760405162461bcd60e51b81526004016102fb90611b23565b6040516370a0823160e01b81523060048201526000906001600160a01b038416906370a082319060240160206040518083038186803b15801561126657600080fd5b505afa15801561127a573d6000803e3d6000fd5b505050506040513d601f19601f8201168201806040525081019061129e9190611963565b9050816112a9578091505b81811061135257826001600160a01b031663a9059cbb6112d16000546001600160a01b031690565b6040516001600160e01b031960e084901b1681526001600160a01b039091166004820152602481018590526044015b602060405180830381600087803b15801561131a57600080fd5b505af115801561132e573d6000803e3d6000fd5b505050506040513d601f19601f82011682018060405250810190610beb9190611865565b826001600160a01b031663a9059cbb6113736000546001600160a01b031690565b6040516001600160e01b031960e084901b1681526001600160a01b03909116600482015260248101849052604401611300565b80516060908067ffffffffffffffff8111156113d257634e487b7160e01b600052604160045260246000fd5b60405190808252806020026020018201604052801561141757816020015b60408051808201909152600080825260208201528152602001906001900390816113f05790505b50915060005b81811015610b3157600084828151811061144757634e487b7160e01b600052603260045260246000fd5b602002602001015190506000819050806001600160a01b0316630902f1ac6040518163ffffffff1660e01b815260040160606040518083038186803b15801561148f57600080fd5b505afa9250505080156114bf575060408051601f3d908101601f191682019092526114bc91810190611915565b60015b61150a5760405180604001604052806000815260200160008152508584815181106114fa57634e487b7160e01b600052603260045260246000fd5b6020026020010181905250611560565b6040518060400160405280846001600160701b03168152602001836001600160701b031681525088878151811061155157634e487b7160e01b600052603260045260246000fd5b60200260200101819052505050505b5050808061156d90611c08565b91505061141d565b600081831061158457816111df565b5090919050565b600080546001600160a01b038381166001600160a01b0319831681178455604051919092169283917f8be0079c531659141344cd1fd0a4f28419497f9722a3daafe3b4186f6b6457e09190a35050565b600082601f8301126115eb578081fd5b813560206116006115fb83611b89565b611b58565b80838252828201915082860187848660051b890101111561161f578586fd5b855b8581101561164657813561163481611c4f565b84529284019290840190600101611621565b5090979650505050505050565b80516001600160701b038116811461166a57600080fd5b919050565b600060208284031215611680578081fd5b81356111df81611c4f565b60006020828403121561169c578081fd5b81516111df81611c4f565b600080604083850312156116b9578081fd5b82356116c481611c4f565b946020939093013593505050565b6000806000606084860312156116e6578081fd5b83356116f181611c4f565b95602085013595506040909401359392505050565b600080600080600060a0868803121561171d578081fd5b853561172881611c4f565b945060208681013594506040870135935060608701359250608087013567ffffffffffffffff811115611759578283fd5b8701601f81018913611769578283fd5b80356117776115fb82611b89565b8082825284820191508484018c868560051b8701011115611796578687fd5b8694505b838510156117c757803561ffff811681146117b3578788fd5b83526001949094019391850191850161179a565b5080955050505050509295509295909350565b6000602082840312156117eb578081fd5b813567ffffffffffffffff811115611801578182fd5b61180d848285016115db565b949350505050565b60008060408385031215611827578182fd5b823567ffffffffffffffff81111561183d578283fd5b611849858286016115db565b925050602083013561185a81611c4f565b809150509250929050565b600060208284031215611876578081fd5b815180151581146111df578182fd5b600060208284031215611896578081fd5b815167ffffffffffffffff808211156118ad578283fd5b818401915084601f8301126118c0578283fd5b8151818111156118d2576118d2611c39565b6118e5601f8201601f1916602001611b58565b91508082528560208285010111156118fb578384fd5b61190c816020840160208601611bdc565b50949350505050565b600080600060608486031215611929578283fd5b61193284611653565b925061194060208501611653565b9150604084015163ffffffff81168114611958578182fd5b809150509250925092565b600060208284031215611974578081fd5b5051919050565b6020808252825182820181905260009190848201906040850190845b818110156119bc5783516001600160a01b031683529284019291840191600101611997565b50909695505050505050565b6000602080830181845280855180835260408601915060408160051b8701019250838701855b82811015611a3457878503603f1901845281518051808752611a15818989018a8501611bdc565b601f01601f1916959095018601945092850192908501906001016119ee565b5092979650505050505050565b602080825282518282018190526000919060409081850190868401855b82811015611a9c57815180516001600160a01b0390811686528782015181168887015290860151168585015260609093019290850190600101611a5e565b5091979650505050505050565b602080825282518282018190526000919060409081850190868401855b82811015611a9c57815180518552860151868501529284019290850190600101611ac6565b6020808252825182820181905260009190848201906040850190845b818110156119bc57835183529284019291840191600101611b07565b6020808252818101527f4f776e61626c653a2063616c6c6572206973206e6f7420746865206f776e6572604082015260600190565b604051601f8201601f1916810167ffffffffffffffff81118282101715611b8157611b81611c39565b604052919050565b600067ffffffffffffffff821115611ba357611ba3611c39565b5060051b60200190565b60008219821115611bc057611bc0611c23565b500190565b600082821015611bd757611bd7611c23565b500390565b60005b83811015611bf7578181015183820152602001611bdf565b83811115610beb5750506000910152565b6000600019821415611c1c57611c1c611c23565b5060010190565b634e487b7160e01b600052601160045260246000fd5b634e487b7160e01b600052604160045260246000fd5b6001600160a01b0381168114610c9d57600080fdfea2646970667358221220ef69668594197db6b500d74f8730ee75bcf88620fcdc6b40f4100da319ff36df64736f6c634300080400338be0079c531659141344cd1fd0a4f28419497f9722a3daafe3b4186f6b6457e0",
  "devdoc": {
    "kind": "dev",
    "methods": {
      "getOwner()": {
        "details": "Returns the address of the current owner."
      },
      "initOwner(address)": {
        "details": "for proxy / initializer"
      },
      "transferContractOwnership(address)": {
        "details": "Transfers ownership of the contract to a new account (`newOwner`). Can only be called by the current owner."
      }
    },
    "version": 1
  },
  "userdoc": {
    "kind": "user",
    "methods": {},
    "version": 1
  },
  "storageLayout": {
    "storage": [
      {
        "astId": 1608,
        "contract": "contracts/Equalizer.sol:Equalizer",
        "label": "_contractOwner",
        "offset": 0,
        "slot": "0",
        "type": "t_address"
      },
      {
        "astId": 131,
        "contract": "contracts/Equalizer.sol:Equalizer",
        "label": "networkToken",
        "offset": 0,
        "slot": "1",
        "type": "t_address"
      }
    ],
    "types": {
      "t_address": {
        "encoding": "inplace",
        "label": "address",
        "numberOfBytes": "20"
      }
    }
  }
}